:100000000C942A000C94F1000C943C000C943C00DD
:100010000C943C000C943C000C943C000C943C0070
:100020000C943C000C943C000C943C000C94C502D5
:100030000C943C000C943C000C943C000C943C0050
:100040000C943C000C943C000C943C000C943C0040
:100050000C943C0011241FBECFE5D8E0DEBFCDBF1D
:1000600020E0A0E6B0E001C01D92A536B207E1F79E
:100070000E9457010C9411030C94000060E084E48A
:100080000E94EC0060E081E40E94440161E081E4B0
:100090000E94440162E081E40E94440160E082E445
:1000A0000E94440161E082E40E94440162E082E433
:1000B0000E9444010E94A3020E9496020E948B02A9
:1000C0000E94860283E591E00E949B020895809140
:1000D0006100811118C060E081E40E94490162E082
:1000E00082E40E9449010E94B8028091610090E080
:1000F000019683709078992324F401978C6F9F6FF9
:10010000019680936100809161008130C1F40E946A
:10011000B80261E081E40E944E0161E082E40E9445
:100120004E018091610090E0019683709078992350
:1001300024F401978C6F9F6F0196809361008091EA
:100140006100823021F580916000882341F060E0F9
:1001500082E40E94490162E082E40E944E0160E074
:1001600081E40E944E0162E081E40E9449010E9404
:10017000B8028091610090E0019683709078992395
:1001800024F401978C6F9F6F0196809361000E9409
:10019000B80260E082E40E944E0161E081E40E94C6
:1001A0004E0161E082E40E944E0180916100833043
:1001B00091F490E0019683709078992324F401974C
:1001C0008C6F9F6F01968093610062E081E40E94D2
:1001D0004E0110926000089540E00E945C0180E0B2
:1001E00008951F920F920FB60F9211242F933F93F1
:1001F0004F935F936F937F938F939F93AF93BF932F
:10020000EF93FF938091600081112DC08091610078
:10021000811104C084E18093640022C0813059F4CC
:100220000E94BE0261E081E40E944E0161E082E42E
:100230000E944E0115C0823059F40E94BE0262E055
:1002400082E40E944E0160E082E40E94490108C0FD
:10025000833031F484E18093640081E08093610015
:1002600081E080936000FF91EF91BF91AF919F91EA
:100270008F917F916F915F914F913F912F910F904F
:100280000FBE0F901F90189541E00E945C0180E026
:10029000089541E00E94D50180E0089540E00E9469
:1002A000D50180E008950E944E0280E008950E94EA
:1002B0003E000E946700FDCF823429F118F481349A
:1002C00039F071C08334D1F1843409F452C06BC069
:1002D000413059F42AB381E090E002C0880F991FA1
:1002E0006A95E2F7822B8ABB5EC041115CC02AB3DB
:1002F00081E090E002C0880F991F6A95E2F780952F
:1003000082238ABB50C0413059F427B381E090E08A
:1003100002C0880F991F6A95E2F7822B87BB43C002
:10032000411141C027B381E090E002C0880F991FBE
:100330006A95E2F78095822387BB35C0413059F436
:1003400024B381E090E002C0880F991F6A95E2F71C
:10035000822B84BB28C0411126C024B381E090E0E9
:1003600002C0880F991F6A95E2F78095822384BBAB
:100370001AC0413059F421B381E090E002C0880FE7
:10038000991F6A95E2F7822B81BB0DC041110BC00A
:1003900021B381E090E002C0880F991F6A95E2F7CF
:1003A0008095822381BB80E00895823429F118F47E
:1003B000813439F071C08334D1F1843409F452C0EE
:1003C0006BC0413059F42BB381E090E002C0880F3C
:1003D000991F6A95E2F7822B8BBB5EC041115CC00E
:1003E0002BB381E090E002C0880F991F6A95E2F775
:1003F000809582238BBB50C0413059F428B381E0F3
:1004000090E002C0880F991F6A95E2F7822B88BBA3
:1004100043C0411141C028B381E090E002C0880F81
:10042000991F6A95E2F78095822388BB35C04130D9
:1004300059F425B381E090E002C0880F991F6A95B6
:10044000E2F7822B85BB28C0411126C025B381E08D
:1004500090E002C0880F991F6A95E2F78095822389
:1004600085BB1AC0413059F422B381E090E002C04C
:10047000880F991F6A95E2F7822B82BB0DC041114C
:100480000BC022B381E090E002C0880F991F6A95EB
:10049000E2F78095822382BB80E008958234A1F048
:1004A00018F4813431F030C08334C9F0843411F150
:1004B0002BC02BB381E090E002C0880F991F6A9592
:1004C000E2F782278BBB20C028B381E090E002C016
:1004D000880F991F6A95E2F7822788BB15C025B35C
:1004E00081E090E002C0880F991F6A95E2F78227A9
:1004F00085BB0AC022B381E090E002C0880F991F3B
:100500006A95E2F7822782BB80E008958FB7806802
:100510008FBF80E0089585B7816085BF85B7826011
:1005200085BF8BB780648BBF80E0089589B78160F9
:1005300089BF80E0089590936300809362000895DE
:1005400082BF80E0089583B783BF8BE00E94A00242
:1005500080E0089583B7856083BF80916400843113
:10056000E0F380E0089513BE1092640080E00895E7
:100570000E94AA020E94B30280E008958BE00E94CC
:10058000A0021092640080E008951F920F920FB6AF
:100590000F9211242F933F934F935F936F937F9309
:1005A0008F939F93AF93BF93EF93FF938BE00E9442
:1005B000A002809164008F5F80936400809161004D
:1005C000813011F08330E1F480916000811108C026
:1005D000E0916200F091630061E081E4099510C050
:1005E000882371F0E0916200F091630061E081E4A2
:1005F0000995E0916200F091630061E082E4099561
:10060000FF91EF91BF91AF919F918F917F916F91EA
:100610005F914F913F912F910F900FBE0F901F90C0
:060620001895F894FFCFCD
:00000001FF
